{
  "address": "0xf5dcD1E23991f6675944a9B1047Bc47d0011a5d8",
  "abi": [
    {
      "inputs": [
        {
          "internalType": "address",
          "name": "initialOwner",
          "type": "address"
        }
      ],
      "stateMutability": "nonpayable",
      "type": "constructor"
    },
    {
      "anonymous": false,
      "inputs": [
        {
          "indexed": true,
          "internalType": "address",
          "name": "owner",
          "type": "address"
        },
        {
          "indexed": true,
          "internalType": "address",
          "name": "approved",
          "type": "address"
        },
        {
          "indexed": true,
          "internalType": "uint256",
          "name": "tokenId",
          "type": "uint256"
        }
      ],
      "name": "Approval",
      "type": "event"
    },
    {
      "anonymous": false,
      "inputs": [
        {
          "indexed": true,
          "internalType": "address",
          "name": "owner",
          "type": "address"
        },
        {
          "indexed": true,
          "internalType": "address",
          "name": "operator",
          "type": "address"
        },
        {
          "indexed": false,
          "internalType": "bool",
          "name": "approved",
          "type": "bool"
        }
      ],
      "name": "ApprovalForAll",
      "type": "event"
    },
    {
      "anonymous": false,
      "inputs": [
        {
          "indexed": true,
          "internalType": "uint256",
          "name": "lockId",
          "type": "uint256"
        }
      ],
      "name": "DisableGovernanceUnlockability",
      "type": "event"
    },
    {
      "anonymous": false,
      "inputs": [
        {
          "indexed": true,
          "internalType": "uint256",
          "name": "lockId",
          "type": "uint256"
        },
        {
          "indexed": false,
          "internalType": "bool",
          "name": "unlocked",
          "type": "bool"
        }
      ],
      "name": "GovernanceUnlockChanged",
      "type": "event"
    },
    {
      "anonymous": false,
      "inputs": [
        {
          "indexed": true,
          "internalType": "uint256",
          "name": "lockId",
          "type": "uint256"
        },
        {
          "indexed": true,
          "internalType": "address",
          "name": "token",
          "type": "address"
        },
        {
          "indexed": true,
          "internalType": "address",
          "name": "creator",
          "type": "address"
        },
        {
          "indexed": false,
          "internalType": "uint256",
          "name": "amount",
          "type": "uint256"
        }
      ],
      "name": "LockCreated",
      "type": "event"
    },
    {
      "anonymous": false,
      "inputs": [
        {
          "indexed": false,
          "internalType": "address",
          "name": "oldOperator",
          "type": "address"
        },
        {
          "indexed": false,
          "internalType": "address",
          "name": "newOperator",
          "type": "address"
        }
      ],
      "name": "OperatorTransferred",
      "type": "event"
    },
    {
      "anonymous": false,
      "inputs": [
        {
          "indexed": true,
          "internalType": "address",
          "name": "previousOwner",
          "type": "address"
        },
        {
          "indexed": true,
          "internalType": "address",
          "name": "newOwner",
          "type": "address"
        }
      ],
      "name": "OwnershipTransferred",
      "type": "event"
    },
    {
      "anonymous": false,
      "inputs": [
        {
          "indexed": false,
          "internalType": "string",
          "name": "oldName",
          "type": "string"
        },
        {
          "indexed": false,
          "internalType": "string",
          "name": "newName",
          "type": "string"
        }
      ],
      "name": "TokenNameChanged",
      "type": "event"
    },
    {
      "anonymous": false,
      "inputs": [
        {
          "indexed": false,
          "internalType": "string",
          "name": "oldSymbol",
          "type": "string"
        },
        {
          "indexed": false,
          "internalType": "string",
          "name": "newSymbol",
          "type": "string"
        }
      ],
      "name": "TokenSymbolChanged",
      "type": "event"
    },
    {
      "anonymous": false,
      "inputs": [
        {
          "indexed": true,
          "internalType": "address",
          "name": "from",
          "type": "address"
        },
        {
          "indexed": true,
          "internalType": "address",
          "name": "to",
          "type": "address"
        },
        {
          "indexed": true,
          "internalType": "uint256",
          "name": "tokenId",
          "type": "uint256"
        }
      ],
      "name": "Transfer",
      "type": "event"
    },
    {
      "anonymous": false,
      "inputs": [
        {
          "indexed": true,
          "internalType": "uint256",
          "name": "lockId",
          "type": "uint256"
        },
        {
          "indexed": true,
          "internalType": "address",
          "name": "token",
          "type": "address"
        },
        {
          "indexed": true,
          "internalType": "address",
          "name": "receiver",
          "type": "address"
        },
        {
          "indexed": false,
          "internalType": "uint256",
          "name": "amount",
          "type": "uint256"
        }
      ],
      "name": "Withdraw",
      "type": "event"
    },
    {
      "inputs": [
        {
          "internalType": "address",
          "name": "to",
          "type": "address"
        },
        {
          "internalType": "uint256",
          "name": "tokenId",
          "type": "uint256"
        }
      ],
      "name": "approve",
      "outputs": [],
      "stateMutability": "nonpayable",
      "type": "function"
    },
    {
      "inputs": [
        {
          "internalType": "address",
          "name": "owner",
          "type": "address"
        }
      ],
      "name": "balanceOf",
      "outputs": [
        {
          "internalType": "uint256",
          "name": "",
          "type": "uint256"
        }
      ],
      "stateMutability": "view",
      "type": "function"
    },
    {
      "inputs": [
        {
          "internalType": "uint256",
          "name": "lockId",
          "type": "uint256"
        },
        {
          "internalType": "bool",
          "name": "unlocked",
          "type": "bool"
        }
      ],
      "name": "changeLockStatusByGovernance",
      "outputs": [],
      "stateMutability": "nonpayable",
      "type": "function"
    },
    {
      "inputs": [
        {
          "internalType": "contract IERC20",
          "name": "token",
          "type": "address"
        },
        {
          "internalType": "uint256",
          "name": "amount",
          "type": "uint256"
        },
        {
          "internalType": "uint256",
          "name": "unlockTimestamp",
          "type": "uint256"
        },
        {
          "internalType": "bool",
          "name": "unlockableByGovernance",
          "type": "bool"
        }
      ],
      "name": "createLock",
      "outputs": [],
      "stateMutability": "nonpayable",
      "type": "function"
    },
    {
      "inputs": [
        {
          "internalType": "uint256",
          "name": "lockId",
          "type": "uint256"
        }
      ],
      "name": "disableUnlockableByGovernance",
      "outputs": [],
      "stateMutability": "nonpayable",
      "type": "function"
    },
    {
      "inputs": [
        {
          "internalType": "uint256",
          "name": "tokenId",
          "type": "uint256"
        }
      ],
      "name": "getApproved",
      "outputs": [
        {
          "internalType": "address",
          "name": "",
          "type": "address"
        }
      ],
      "stateMutability": "view",
      "type": "function"
    },
    {
      "inputs": [
        {
          "internalType": "uint256",
          "name": "lockId",
          "type": "uint256"
        }
      ],
      "name": "getLock",
      "outputs": [
        {
          "components": [
            {
              "internalType": "uint256",
              "name": "lockId",
              "type": "uint256"
            },
            {
              "internalType": "contract IERC20",
              "name": "token",
              "type": "address"
            },
            {
              "internalType": "address",
              "name": "creator",
              "type": "address"
            },
            {
              "internalType": "uint256",
              "name": "amount",
              "type": "uint256"
            },
            {
              "internalType": "bool",
              "name": "unclaimed",
              "type": "bool"
            },
            {
              "internalType": "uint256",
              "name": "unlockTimestamp",
              "type": "uint256"
            },
            {
              "internalType": "address",
              "name": "holdingContract",
              "type": "address"
            },
            {
              "internalType": "bool",
              "name": "unlockableByGovernance",
              "type": "bool"
            },
            {
              "internalType": "bool",
              "name": "unlockedByGovernance",
              "type": "bool"
            }
          ],
          "internalType": "struct Locker.Lock",
          "name": "",
          "type": "tuple"
        }
      ],
      "stateMutability": "view",
      "type": "function"
    },
    {
      "inputs": [
        {
          "internalType": "address",
          "name": "owner",
          "type": "address"
        },
        {
          "internalType": "address",
          "name": "operator",
          "type": "address"
        }
      ],
      "name": "isApprovedForAll",
      "outputs": [
        {
          "internalType": "bool",
          "name": "",
          "type": "bool"
        }
      ],
      "stateMutability": "view",
      "type": "function"
    },
    {
      "inputs": [
        {
          "internalType": "uint256",
          "name": "lockId",
          "type": "uint256"
        }
      ],
      "name": "isValidLock",
      "outputs": [
        {
          "internalType": "bool",
          "name": "",
          "type": "bool"
        }
      ],
      "stateMutability": "view",
      "type": "function"
    },
    {
      "inputs": [],
      "name": "lastLockId",
      "outputs": [
        {
          "internalType": "uint256",
          "name": "",
          "type": "uint256"
        }
      ],
      "stateMutability": "view",
      "type": "function"
    },
    {
      "inputs": [],
      "name": "name",
      "outputs": [
        {
          "internalType": "string",
          "name": "",
          "type": "string"
        }
      ],
      "stateMutability": "view",
      "type": "function"
    },
    {
      "inputs": [],
      "name": "operator",
      "outputs": [
        {
          "internalType": "address",
          "name": "",
          "type": "address"
        }
      ],
      "stateMutability": "view",
      "type": "function"
    },
    {
      "inputs": [],
      "name": "owner",
      "outputs": [
        {
          "internalType": "address",
          "name": "",
          "type": "address"
        }
      ],
      "stateMutability": "view",
      "type": "function"
    },
    {
      "inputs": [
        {
          "internalType": "uint256",
          "name": "tokenId",
          "type": "uint256"
        }
      ],
      "name": "ownerOf",
      "outputs": [
        {
          "internalType": "address",
          "name": "",
          "type": "address"
        }
      ],
      "stateMutability": "view",
      "type": "function"
    },
    {
      "inputs": [],
      "name": "renounceOwnership",
      "outputs": [],
      "stateMutability": "nonpayable",
      "type": "function"
    },
    {
      "inputs": [
        {
          "internalType": "address",
          "name": "from",
          "type": "address"
        },
        {
          "internalType": "address",
          "name": "to",
          "type": "address"
        },
        {
          "internalType": "uint256",
          "name": "tokenId",
          "type": "uint256"
        }
      ],
      "name": "safeTransferFrom",
      "outputs": [],
      "stateMutability": "nonpayable",
      "type": "function"
    },
    {
      "inputs": [
        {
          "internalType": "address",
          "name": "from",
          "type": "address"
        },
        {
          "internalType": "address",
          "name": "to",
          "type": "address"
        },
        {
          "internalType": "uint256",
          "name": "tokenId",
          "type": "uint256"
        },
        {
          "internalType": "bytes",
          "name": "_data",
          "type": "bytes"
        }
      ],
      "name": "safeTransferFrom",
      "outputs": [],
      "stateMutability": "nonpayable",
      "type": "function"
    },
    {
      "inputs": [
        {
          "internalType": "address",
          "name": "operator",
          "type": "address"
        },
        {
          "internalType": "bool",
          "name": "approved",
          "type": "bool"
        }
      ],
      "name": "setApprovalForAll",
      "outputs": [],
      "stateMutability": "nonpayable",
      "type": "function"
    },
    {
      "inputs": [
        {
          "internalType": "string",
          "name": "_name",
          "type": "string"
        },
        {
          "internalType": "string",
          "name": "_symbol",
          "type": "string"
        }
      ],
      "name": "setTokenNameAndSymbol",
      "outputs": [],
      "stateMutability": "nonpayable",
      "type": "function"
    },
    {
      "inputs": [
        {
          "internalType": "bytes4",
          "name": "interfaceId",
          "type": "bytes4"
        }
      ],
      "name": "supportsInterface",
      "outputs": [
        {
          "internalType": "bool",
          "name": "",
          "type": "bool"
        }
      ],
      "stateMutability": "view",
      "type": "function"
    },
    {
      "inputs": [],
      "name": "symbol",
      "outputs": [
        {
          "internalType": "string",
          "name": "",
          "type": "string"
        }
      ],
      "stateMutability": "view",
      "type": "function"
    },
    {
      "inputs": [
        {
          "internalType": "uint256",
          "name": "index",
          "type": "uint256"
        }
      ],
      "name": "tokenByIndex",
      "outputs": [
        {
          "internalType": "uint256",
          "name": "",
          "type": "uint256"
        }
      ],
      "stateMutability": "view",
      "type": "function"
    },
    {
      "inputs": [
        {
          "internalType": "address",
          "name": "owner",
          "type": "address"
        },
        {
          "internalType": "uint256",
          "name": "index",
          "type": "uint256"
        }
      ],
      "name": "tokenOfOwnerByIndex",
      "outputs": [
        {
          "internalType": "uint256",
          "name": "",
          "type": "uint256"
        }
      ],
      "stateMutability": "view",
      "type": "function"
    },
    {
      "inputs": [
        {
          "internalType": "uint256",
          "name": "tokenId",
          "type": "uint256"
        }
      ],
      "name": "tokenURI",
      "outputs": [
        {
          "internalType": "string",
          "name": "",
          "type": "string"
        }
      ],
      "stateMutability": "view",
      "type": "function"
    },
    {
      "inputs": [],
      "name": "totalSupply",
      "outputs": [
        {
          "internalType": "uint256",
          "name": "",
          "type": "uint256"
        }
      ],
      "stateMutability": "view",
      "type": "function"
    },
    {
      "inputs": [
        {
          "internalType": "address",
          "name": "from",
          "type": "address"
        },
        {
          "internalType": "address",
          "name": "to",
          "type": "address"
        },
        {
          "internalType": "uint256",
          "name": "tokenId",
          "type": "uint256"
        }
      ],
      "name": "transferFrom",
      "outputs": [],
      "stateMutability": "nonpayable",
      "type": "function"
    },
    {
      "inputs": [
        {
          "internalType": "address",
          "name": "newOperator",
          "type": "address"
        }
      ],
      "name": "transferOperator",
      "outputs": [],
      "stateMutability": "nonpayable",
      "type": "function"
    },
    {
      "inputs": [
        {
          "internalType": "address",
          "name": "newOwner",
          "type": "address"
        }
      ],
      "name": "transferOwnership",
      "outputs": [],
      "stateMutability": "nonpayable",
      "type": "function"
    },
    {
      "inputs": [
        {
          "internalType": "uint256",
          "name": "lockId",
          "type": "uint256"
        }
      ],
      "name": "withdraw",
      "outputs": [],
      "stateMutability": "nonpayable",
      "type": "function"
    }
  ],
  "transactionHash": "0x857c20cca540366c445b2437b7e432d0f14523b4cbc875d05e561772208404a3",
  "args": [
    "0xa66745F0092F7460F107E4c66C224553bF4Cd727"
  ],
  "solcInputHash": "71ba2e006a303c95eb2b44ee05c15df7",
  "bytecode": "0x60c0604052600e60808190526d56696f6c696e204c50204c6f636b60901b60a09081526200003191600f919062000343565b50604080518082019091526007808252664c505f4c4f434b60c81b6020909201918252620000629160109162000343565b503480156200007057600080fd5b5060405162003a8438038062003a848339810160408190526200009391620003e9565b600f8054620000a2906200041b565b80601f0160208091040260200160405190810160405280929190818152602001828054620000d0906200041b565b8015620001215780601f10620000f55761010080835404028352916020019162000121565b820191906000526020600020905b8154815290600101906020018083116200010357829003601f168201915b50505050506010805462000135906200041b565b80601f016020809104026020016040519081016040528092919081815260200182805462000163906200041b565b8015620001b45780601f106200018857610100808354040283529160200191620001b4565b820191906000526020600020905b8154815290600101906020018083116200019657829003601f168201915b50508451620001ce93506000925060208601915062000343565b508051620001e490600190602084019062000343565b50505062000201620001fb6200021860201b60201c565b6200021c565b6001600b5562000211816200026e565b5062000458565b3390565b600a80546001600160a01b038381166001600160a01b0319831681179093556040519116919082907f8be0079c531659141344cd1fd0a4f28419497f9722a3daafe3b4186f6b6457e090600090a35050565b600a546001600160a01b03163314620002ce5760405162461bcd60e51b815260206004820181905260248201527f4f776e61626c653a2063616c6c6572206973206e6f7420746865206f776e657260448201526064015b60405180910390fd5b6001600160a01b038116620003355760405162461bcd60e51b815260206004820152602660248201527f4f776e61626c653a206e6577206f776e657220697320746865207a65726f206160448201526564647265737360d01b6064820152608401620002c5565b62000340816200021c565b50565b82805462000351906200041b565b90600052602060002090601f016020900481019282620003755760008555620003c0565b82601f106200039057805160ff1916838001178555620003c0565b82800160010185558215620003c0579182015b82811115620003c0578251825591602001919060010190620003a3565b50620003ce929150620003d2565b5090565b5b80821115620003ce5760008155600101620003d3565b600060208284031215620003fc57600080fd5b81516001600160a01b03811681146200041457600080fd5b9392505050565b600181811c908216806200043057607f821691505b602082108114156200045257634e487b7160e01b600052602260045260246000fd5b50919050565b61361c80620004686000396000f3fe608060405234801561001057600080fd5b506004361061018f5760003560e01c806370a08231116100e4578063a3f7970b11610092578063a3f7970b14610327578063b88d4fde1461033a578063c87b56dd1461034d578063d0cb39c614610360578063d68f4dd114610368578063db16143a14610388578063e985e9c51461039b578063f2fde38b146103ae57600080fd5b806370a08231146102c3578063715018a6146102d65780637f0e964b146102de5780638da5cb5b146102f157806395d89b41146102f95780639a708be314610301578063a22cb4651461031457600080fd5b806329605e771161014157806329605e771461023e5780632e1a7d4d146102515780632f745c591461026457806342842e0e146102775780634f6ccce71461028a578063570ca7351461029d5780636352211e146102b057600080fd5b806301ffc9a71461019457806306fdde03146101bc578063081812fc146101d1578063095ea7b3146101f1578063143f39ee1461020657806318160ddd1461021957806323b872dd1461022b575b600080fd5b6101a76101a2366004612abb565b6103c1565b60405190151581526020015b60405180910390f35b6101c46103ec565b6040516101b39190612cee565b6101e46101df366004612bab565b61047e565b6040516101b39190612c79565b6102046101ff366004612a72565b61050b565b005b6101a7610214366004612bab565b61061c565b6008545b6040519081526020016101b3565b610204610239366004612923565b610631565b61020461024c3660046128cd565b610662565b61020461025f366004612bab565b61074d565b61021d610272366004612a72565b6109dc565b610204610285366004612923565b610a72565b61021d610298366004612bab565b610a8d565b600c546101e4906001600160a01b031681565b6101e46102be366004612bab565b610b20565b61021d6102d13660046128cd565b610b97565b610204610c1e565b6102046102ec366004612bdd565b610c59565b6101e4610e06565b6101c4610e15565b61020461030f366004612b3f565b610e24565b610204610322366004612a44565b6111b1565b610204610335366004612af5565b611272565b610204610348366004612964565b611707565b6101c461035b366004612bab565b611739565b61021d611811565b61037b610376366004612bab565b611821565b6040516101b39190612edb565b610204610396366004612bab565b61194a565b6101a76103a93660046128ea565b611a6d565b6102046103bc3660046128cd565b611a9b565b60006001600160e01b0319821663780e9d6360e01b14806103e657506103e682611b3b565b92915050565b6060600f80546103fb90612fe1565b80601f016020809104026020016040519081016040528092919081815260200182805461042790612fe1565b80156104745780601f1061044957610100808354040283529160200191610474565b820191906000526020600020905b81548152906001019060200180831161045757829003601f168201915b5050505050905090565b600061048982611b8b565b6104ef5760405162461bcd60e51b815260206004820152602c60248201527f4552433732313a20617070726f76656420717565727920666f72206e6f6e657860448201526b34b9ba32b73a103a37b5b2b760a11b60648201526084015b60405180910390fd5b506000908152600460205260409020546001600160a01b031690565b600061051682610b20565b9050806001600160a01b0316836001600160a01b031614156105845760405162461bcd60e51b815260206004820152602160248201527f4552433732313a20617070726f76616c20746f2063757272656e74206f776e656044820152603960f91b60648201526084016104e6565b336001600160a01b03821614806105a057506105a08133611a6d565b61060d5760405162461bcd60e51b815260206004820152603860248201527f4552433732313a20617070726f76652063616c6c6572206973206e6f74206f776044820152771b995c881b9bdc88185c1c1c9bdd995908199bdc88185b1b60421b60648201526084016104e6565b6106178383611ba8565b505050565b600081158015906103e6575050600d54101590565b61063b3382611c16565b6106575760405162461bcd60e51b81526004016104e690612e2e565b610617838383611ce0565b3361066b610e06565b6001600160a01b0316146106915760405162461bcd60e51b81526004016104e690612dc2565b6002600b5414156106b45760405162461bcd60e51b81526004016104e690612e7f565b6002600b55600c546001600160a01b03828116911614156106e75760405162461bcd60e51b81526004016104e690612eb6565b600c80546001600160a01b038381166001600160a01b031983168117909355604080519190921680825260208201939093527f74da04524d50c64947f5dd5381ef1a4dca5cba8ed1d816243f9e48aa0b5617ed910160405180910390a150506001600b55565b6002600b5414156107705760405162461bcd60e51b81526004016104e690612e7f565b6002600b5561077e8161061c565b61079a5760405162461bcd60e51b81526004016104e690612d99565b6000818152600e602052604090206001810154600682015460058301546001600160a01b039283169290911690421015806107e057506006830154600160a81b900460ff165b61081b5760405162461bcd60e51b815260206004820152600c60248201526b1cdd1a5b1b081b1bd8dad95960a21b60448201526064016104e6565b600483015460ff166108615760405162461bcd60e51b815260206004820152600f60248201526e185b1c9958591e4818db185a5b5959608a1b60448201526064016104e6565b3361086b85610b20565b6001600160a01b0316146108915760405162461bcd60e51b81526004016104e690612df7565b60048301805460ff191690556108a684611d1d565b6040516370a0823160e01b81526000906001600160a01b038416906370a08231906108d5908590600401612c79565b60206040518083038186803b1580156108ed57600080fd5b505afa158015610901573d6000803e3d6000fd5b505050506040513d601f19601f820116820180604052508101906109259190612bc4565b6040516352f950a960e11b81529091506001600160a01b0383169063a5f2a1529061095890869033908690600401612c8d565b600060405180830381600087803b15801561097257600080fd5b505af1158015610986573d6000803e3d6000fd5b50505050600184015460405182815233916001600160a01b03169087907ffeb2000dca3e617cd6f3a8bbb63014bb54a124aac6ccbf73ee7229b4cd01f1209060200160405180910390a450506001600b55505050565b60006109e783610b97565b8210610a495760405162461bcd60e51b815260206004820152602b60248201527f455243373231456e756d657261626c653a206f776e657220696e646578206f7560448201526a74206f6620626f756e647360a81b60648201526084016104e6565b506001600160a01b03919091166000908152600660209081526040808320938352929052205490565b61061783838360405180602001604052806000815250611707565b6000610a9860085490565b8210610afb5760405162461bcd60e51b815260206004820152602c60248201527f455243373231456e756d657261626c653a20676c6f62616c20696e646578206f60448201526b7574206f6620626f756e647360a01b60648201526084016104e6565b60088281548110610b0e57610b0e61308d565b90600052602060002001549050919050565b6000818152600260205260408120546001600160a01b0316806103e65760405162461bcd60e51b815260206004820152602960248201527f4552433732313a206f776e657220717565727920666f72206e6f6e657869737460448201526832b73a103a37b5b2b760b91b60648201526084016104e6565b60006001600160a01b038216610c025760405162461bcd60e51b815260206004820152602a60248201527f4552433732313a2062616c616e636520717565727920666f7220746865207a65604482015269726f206164647265737360b01b60648201526084016104e6565b506001600160a01b031660009081526003602052604090205490565b33610c27610e06565b6001600160a01b031614610c4d5760405162461bcd60e51b81526004016104e690612dc2565b610c576000611db2565b565b600c546001600160a01b03163314610ca35760405162461bcd60e51b815260206004820152600d60248201526c37b7363c9037b832b930ba37b960991b60448201526064016104e6565b6002600b541415610cc65760405162461bcd60e51b81526004016104e690612e7f565b6002600b55610cd48261061c565b610d0f5760405162461bcd60e51b815260206004820152600c60248201526b696e76616c6964206c6f636b60a01b60448201526064016104e6565b6000828152600e602052604090206006810154600160a01b900460ff16610d705760405162461bcd60e51b81526020600482015260156024820152746e6f7420616c6c6f77656420746f20756e6c6f636b60581b60448201526064016104e6565b600681015460ff600160a81b9091041615158215151415610da35760405162461bcd60e51b81526004016104e690612eb6565b600681018054831515600160a81b0260ff60a81b1990911617905560405183907f792b43b1b60ef204becc6f6a88af423f27a24b1197259bb393969f019489723090610df490851515815260200190565b60405180910390a250506001600b5550565b600a546001600160a01b031690565b6060601080546103fb90612fe1565b33610e2d610e06565b6001600160a01b031614610e535760405162461bcd60e51b81526004016104e690612dc2565b610f1d600f8054610e6390612fe1565b80601f0160208091040260200160405190810160405280929190818152602001828054610e8f90612fe1565b8015610edc5780601f10610eb157610100808354040283529160200191610edc565b820191906000526020600020905b815481529060010190602001808311610ebf57829003601f168201915b505050505085858080601f016020809104026020016040519081016040528093929190818152602001838380828437600092019190915250611e0492505050565b610fff576000600f8054610f3090612fe1565b80601f0160208091040260200160405190810160405280929190818152602001828054610f5c90612fe1565b8015610fa95780601f10610f7e57610100808354040283529160200191610fa9565b820191906000526020600020905b815481529060010190602001808311610f8c57829003601f168201915b505050505090508484600f9190610fc19291906127de565b507fe08ba098c56583ff7ce264f98fb97b7ddc5e6af834acc0556b24327f72a555f9818686604051610ff593929190612d01565b60405180910390a1505b6110c96010805461100f90612fe1565b80601f016020809104026020016040519081016040528092919081815260200182805461103b90612fe1565b80156110885780601f1061105d57610100808354040283529160200191611088565b820191906000526020600020905b81548152906001019060200180831161106b57829003601f168201915b505050505083838080601f016020809104026020016040519081016040528093929190818152602001838380828437600092019190915250611e0492505050565b6111ab576000601080546110dc90612fe1565b80601f016020809104026020016040519081016040528092919081815260200182805461110890612fe1565b80156111555780601f1061112a57610100808354040283529160200191611155565b820191906000526020600020905b81548152906001019060200180831161113857829003601f168201915b5050505050905082826010919061116d9291906127de565b507f68023cab388c6052af3fa625f164cd0c14cc9125d57286fbe0d9b384847c4c028184846040516111a193929190612d01565b60405180910390a1505b50505050565b6001600160a01b0382163314156112065760405162461bcd60e51b815260206004820152601960248201527822a9219b99189d1030b8383937bb32903a379031b0b63632b960391b60448201526064016104e6565b3360008181526005602090815260408083206001600160a01b03871680855290835292819020805460ff191686151590811790915590519081529192917f17307eab39ab6107e8899845ad3d59bd9653f200f220920489ca2b5937696c31910160405180910390a35050565b6002600b5414156112955760405162461bcd60e51b81526004016104e690612e7f565b6002600b55826112d55760405162461bcd60e51b815260206004820152600b60248201526a1e995c9bc8185b5bdd5b9d60aa1b60448201526064016104e6565b4282116113125760405162461bcd60e51b815260206004820152600b60248201526a1d1a5b59481c185cdcd95960aa1b60448201526064016104e6565b6402540be400821080611326575060001982145b6113615760405162461bcd60e51b815260206004820152600c60248201526b746f6f20666172206177617960a01b60448201526064016104e6565b61136f600d80546001019055565b600061137a600d5490565b9050600060405161138a90612862565b604051809103906000f0801580156113a6573d6000803e3d6000fd5b5090506000866001600160a01b03166370a08231836040518263ffffffff1660e01b81526004016113d79190612c79565b60206040518083038186803b1580156113ef57600080fd5b505afa158015611403573d6000803e3d6000fd5b505050506040513d601f19601f820116820180604052508101906114279190612bc4565b905061143e6001600160a01b038816338489611e5d565b6040516370a0823160e01b815281906001600160a01b038916906370a082319061146c908690600401612c79565b60206040518083038186803b15801561148457600080fd5b505afa158015611498573d6000803e3d6000fd5b505050506040513d601f19601f820116820180604052508101906114bc9190612bc4565b6114c69190612f9e565b6000848152600e60205260409020600201549096506001600160a01b0316156115225760405162461bcd60e51b815260206004820152600e60248201526d616c72656164792065786973747360901b60448201526064016104e6565b604051806101200160405280848152602001886001600160a01b03168152602001336001600160a01b03168152602001878152602001600115158152602001868152602001836001600160a01b03168152602001851515815260200160001515815250600e60008581526020019081526020016000206000820151816000015560208201518160010160006101000a8154816001600160a01b0302191690836001600160a01b0316021790555060408201518160020160006101000a8154816001600160a01b0302191690836001600160a01b031602179055506060820151816003015560808201518160040160006101000a81548160ff02191690831515021790555060a0820151816005015560c08201518160060160006101000a8154816001600160a01b0302191690836001600160a01b0316021790555060e08201518160060160146101000a81548160ff0219169083151502179055506101008201518160060160156101000a81548160ff0219169083151502179055509050506116ab3384611eb5565b336001600160a01b0316876001600160a01b0316847f2161ac88b058ae4333d49c523005a7ecef8267ac631690891d19a7e1939e2a8a896040516116f191815260200190565b60405180910390a450506001600b555050505050565b6117113383611c16565b61172d5760405162461bcd60e51b81526004016104e690612e2e565b6111ab84848484611fe2565b606061174482611b8b565b6117a85760405162461bcd60e51b815260206004820152602f60248201527f4552433732314d657461646174613a2055524920717565727920666f72206e6f60448201526e3732bc34b9ba32b73a103a37b5b2b760891b60648201526084016104e6565b60006117bf60408051602081019091526000815290565b905060008151116117df576040518060200160405280600081525061180a565b806117e984612015565b6040516020016117fa929190612c4a565b6040516020818303038152906040525b9392505050565b600061181c600d5490565b905090565b6040805161012081018252600080825260208201819052918101829052606081018290526080810182905260a0810182905260c0810182905260e081018290526101008101919091526118738261061c565b6118ae5760405162461bcd60e51b815260206004820152600c60248201526b6f7574206f662072616e676560a01b60448201526064016104e6565b506000908152600e60209081526040918290208251610120810184528154815260018201546001600160a01b0390811693820193909352600282015483169381019390935260038101546060840152600481015460ff90811615156080850152600582015460a085015260069091015491821660c0840152600160a01b82048116151560e0840152600160a81b90910416151561010082015290565b6002600b54141561196d5760405162461bcd60e51b81526004016104e690612e7f565b6002600b5561197b8161061c565b6119975760405162461bcd60e51b81526004016104e690612d99565b336119a182610b20565b6001600160a01b0316146119c75760405162461bcd60e51b81526004016104e690612df7565b6000818152600e602052604090206006810154600160a01b900460ff16611a295760405162461bcd60e51b8152602060048201526016602482015275616c7265616479206e6f7420756e6c6f636b61626c6560501b60448201526064016104e6565b60068101805461ffff60a01b1916905560405182907f4bd73e01527860a4a8a261d8a9919d5cabb8fd0b2c4c4b433c2072f5371bc75c90600090a250506001600b55565b6001600160a01b03918216600090815260056020908152604080832093909416825291909152205460ff1690565b33611aa4610e06565b6001600160a01b031614611aca5760405162461bcd60e51b81526004016104e690612dc2565b6001600160a01b038116611b2f5760405162461bcd60e51b815260206004820152602660248201527f4f776e61626c653a206e6577206f776e657220697320746865207a65726f206160448201526564647265737360d01b60648201526084016104e6565b611b3881611db2565b50565b60006001600160e01b031982166380ac58cd60e01b1480611b6c57506001600160e01b03198216635b5e139f60e01b145b806103e657506301ffc9a760e01b6001600160e01b03198316146103e6565b6000908152600260205260409020546001600160a01b0316151590565b600081815260046020526040902080546001600160a01b0319166001600160a01b0384169081179091558190611bdd82610b20565b6001600160a01b03167f8c5be1e5ebec7d5bd14f71427d1e84f3dd0314c0f7b2291e5b200ac8c7c3b92560405160405180910390a45050565b6000611c2182611b8b565b611c825760405162461bcd60e51b815260206004820152602c60248201527f4552433732313a206f70657261746f7220717565727920666f72206e6f6e657860448201526b34b9ba32b73a103a37b5b2b760a11b60648201526084016104e6565b6000611c8d83610b20565b9050806001600160a01b0316846001600160a01b03161480611cc85750836001600160a01b0316611cbd8461047e565b6001600160a01b0316145b80611cd85750611cd88185611a6d565b949350505050565b6002600b541415611d035760405162461bcd60e51b81526004016104e690612e7f565b6002600b55611d13838383612113565b50506001600b5550565b6000611d2882610b20565b9050611d36816000846122ac565b611d41600083611ba8565b6001600160a01b0381166000908152600360205260408120805460019290611d6a908490612f9e565b909155505060008281526002602052604080822080546001600160a01b0319169055518391906001600160a01b038416906000805160206135c7833981519152908390a45050565b600a80546001600160a01b038381166001600160a01b0319831681179093556040519116919082907f8be0079c531659141344cd1fd0a4f28419497f9722a3daafe3b4186f6b6457e090600090a35050565b600081604051602001611e179190612c2e565b6040516020818303038152906040528051906020012083604051602001611e3e9190612c2e565b6040516020818303038152906040528051906020012014905092915050565b6111ab846323b872dd60e01b858585604051602401611e7e93929190612c8d565b60408051601f198184030181529190526020810180516001600160e01b03166001600160e01b031990931692909217909152612364565b6001600160a01b038216611f0b5760405162461bcd60e51b815260206004820181905260248201527f4552433732313a206d696e7420746f20746865207a65726f206164647265737360448201526064016104e6565b611f1481611b8b565b15611f615760405162461bcd60e51b815260206004820152601c60248201527f4552433732313a20746f6b656e20616c7265616479206d696e7465640000000060448201526064016104e6565b611f6d600083836122ac565b6001600160a01b0382166000908152600360205260408120805460019290611f96908490612f72565b909155505060008181526002602052604080822080546001600160a01b0319166001600160a01b03861690811790915590518392906000805160206135c7833981519152908290a45050565b611fed848484611ce0565b611ff984848484612436565b6111ab5760405162461bcd60e51b81526004016104e690612d47565b6060816120395750506040805180820190915260018152600360fc1b602082015290565b8160005b8115612063578061204d8161301c565b915061205c9050600a83612f8a565b915061203d565b60008167ffffffffffffffff81111561207e5761207e6130a3565b6040519080825280601f01601f1916602001820160405280156120a8576020820181803683370190505b5090505b8415611cd8576120bd600183612f9e565b91506120ca600a86613037565b6120d5906030612f72565b60f81b8183815181106120ea576120ea61308d565b60200101906001600160f81b031916908160001a90535061210c600a86612f8a565b94506120ac565b826001600160a01b031661212682610b20565b6001600160a01b03161461218e5760405162461bcd60e51b815260206004820152602960248201527f4552433732313a207472616e73666572206f6620746f6b656e2074686174206960448201526839903737ba1037bbb760b91b60648201526084016104e6565b6001600160a01b0382166121f05760405162461bcd60e51b8152602060048201526024808201527f4552433732313a207472616e7366657220746f20746865207a65726f206164646044820152637265737360e01b60648201526084016104e6565b6121fb8383836122ac565b612206600082611ba8565b6001600160a01b038316600090815260036020526040812080546001929061222f908490612f9e565b90915550506001600160a01b038216600090815260036020526040812080546001929061225d908490612f72565b909155505060008181526002602052604080822080546001600160a01b0319166001600160a01b0386811691821790925591518493918716916000805160206135c783398151915291a4505050565b6001600160a01b0383166123075761230281600880546000838152600960205260408120829055600182018355919091527ff3f7a9fe364faab93b216da50a3214154f22a0a2b415b23a84c8169e8b636ee30155565b61232a565b816001600160a01b0316836001600160a01b03161461232a5761232a8382612543565b6001600160a01b03821661234157610617816125e0565b826001600160a01b0316826001600160a01b03161461061757610617828261268f565b60006123b9826040518060400160405280602081526020017f5361666545524332303a206c6f772d6c6576656c2063616c6c206661696c6564815250856001600160a01b03166126d39092919063ffffffff16565b80519091501561061757808060200190518101906123d79190612a9e565b6106175760405162461bcd60e51b815260206004820152602a60248201527f5361666545524332303a204552433230206f7065726174696f6e20646964206e6044820152691bdd081cdd58d8d9595960b21b60648201526084016104e6565b60006001600160a01b0384163b1561253857604051630a85bd0160e11b81526001600160a01b0385169063150b7a029061247a903390899088908890600401612cb1565b602060405180830381600087803b15801561249457600080fd5b505af19250505080156124c4575060408051601f3d908101601f191682019092526124c191810190612ad8565b60015b61251e573d8080156124f2576040519150601f19603f3d011682016040523d82523d6000602084013e6124f7565b606091505b5080516125165760405162461bcd60e51b81526004016104e690612d47565b805181602001fd5b6001600160e01b031916630a85bd0160e11b149050611cd8565b506001949350505050565b6000600161255084610b97565b61255a9190612f9e565b6000838152600760205260409020549091508082146125ad576001600160a01b03841660009081526006602090815260408083208584528252808320548484528184208190558352600790915290208190555b5060009182526007602090815260408084208490556001600160a01b039094168352600681528383209183525290812055565b6008546000906125f290600190612f9e565b6000838152600960205260408120546008805493945090928490811061261a5761261a61308d565b90600052602060002001549050806008838154811061263b5761263b61308d565b600091825260208083209091019290925582815260099091526040808220849055858252812055600880548061267357612673613077565b6001900381819060005260206000200160009055905550505050565b600061269a83610b97565b6001600160a01b039093166000908152600660209081526040808320868452825280832085905593825260079052919091209190915550565b6060611cd8848460008585843b61272c5760405162461bcd60e51b815260206004820152601d60248201527f416464726573733a2063616c6c20746f206e6f6e2d636f6e747261637400000060448201526064016104e6565b600080866001600160a01b031685876040516127489190612c2e565b60006040518083038185875af1925050503d8060008114612785576040519150601f19603f3d011682016040523d82523d6000602084013e61278a565b606091505b509150915061279a8282866127a5565b979650505050505050565b606083156127b457508161180a565b8251156127c45782518084602001fd5b8160405162461bcd60e51b81526004016104e69190612cee565b8280546127ea90612fe1565b90600052602060002090601f01602090048101928261280c5760008555612852565b82601f106128255782800160ff19823516178555612852565b82800160010185558215612852579182015b82811115612852578235825591602001919060010190612837565b5061285e92915061286f565b5090565b6104d4806130f383390190565b5b8082111561285e5760008155600101612870565b60008083601f84011261289657600080fd5b50813567ffffffffffffffff8111156128ae57600080fd5b6020830191508360208285010111156128c657600080fd5b9250929050565b6000602082840312156128df57600080fd5b813561180a816130b9565b600080604083850312156128fd57600080fd5b8235612908816130b9565b91506020830135612918816130b9565b809150509250929050565b60008060006060848603121561293857600080fd5b8335612943816130b9565b92506020840135612953816130b9565b929592945050506040919091013590565b6000806000806080858703121561297a57600080fd5b8435612985816130b9565b93506020850135612995816130b9565b925060408501359150606085013567ffffffffffffffff808211156129b957600080fd5b818701915087601f8301126129cd57600080fd5b8135818111156129df576129df6130a3565b604051601f8201601f19908116603f01168101908382118183101715612a0757612a076130a3565b816040528281528a6020848701011115612a2057600080fd5b82602086016020830137600060208483010152809550505050505092959194509250565b60008060408385031215612a5757600080fd5b8235612a62816130b9565b91506020830135612918816130ce565b60008060408385031215612a8557600080fd5b8235612a90816130b9565b946020939093013593505050565b600060208284031215612ab057600080fd5b815161180a816130ce565b600060208284031215612acd57600080fd5b813561180a816130dc565b600060208284031215612aea57600080fd5b815161180a816130dc565b60008060008060808587031215612b0b57600080fd5b8435612b16816130b9565b935060208501359250604085013591506060850135612b34816130ce565b939692955090935050565b60008060008060408587031215612b5557600080fd5b843567ffffffffffffffff80821115612b6d57600080fd5b612b7988838901612884565b90965094506020870135915080821115612b9257600080fd5b50612b9f87828801612884565b95989497509550505050565b600060208284031215612bbd57600080fd5b5035919050565b600060208284031215612bd657600080fd5b5051919050565b60008060408385031215612bf057600080fd5b823591506020830135612918816130ce565b60008151808452612c1a816020860160208601612fb5565b601f01601f19169290920160200192915050565b60008251612c40818460208701612fb5565b9190910192915050565b60008351612c5c818460208801612fb5565b835190830190612c70818360208801612fb5565b01949350505050565b6001600160a01b0391909116815260200190565b6001600160a01b039384168152919092166020820152604081019190915260600190565b6001600160a01b0385811682528416602082015260408101839052608060608201819052600090612ce490830184612c02565b9695505050505050565b60208152600061180a6020830184612c02565b604081526000612d146040830186612c02565b8281036020840152838152838560208301376000602085830101526020601f19601f860116820101915050949350505050565b60208082526032908201527f4552433732313a207472616e7366657220746f206e6f6e20455243373231526560408201527131b2b4bb32b91034b6b83632b6b2b73a32b960711b606082015260800190565b6020808252600f908201526e1a5b9d985b1a59081b1bd8dac81a59608a1b604082015260600190565b6020808252818101527f4f776e61626c653a2063616c6c6572206973206e6f7420746865206f776e6572604082015260600190565b6020808252601d908201527f6e6f74206f776e6572206f66206c6f636b20736861726520746f6b656e000000604082015260600190565b60208082526031908201527f4552433732313a207472616e736665722063616c6c6572206973206e6f74206f6040820152701ddb995c881b9bdc88185c1c1c9bdd9959607a1b606082015260800190565b6020808252601f908201527f5265656e7472616e637947756172643a207265656e7472616e742063616c6c00604082015260600190565b6020808252600b908201526a185b1c9958591e481cd95d60aa1b604082015260600190565b60006101208201905082518252602083015160018060a01b0380821660208501528060408601511660408501525050606083015160608301526080830151612f27608084018215159052565b5060a083015160a083015260c0830151612f4c60c08401826001600160a01b03169052565b5060e0830151612f6060e084018215159052565b50610100928301511515919092015290565b60008219821115612f8557612f8561304b565b500190565b600082612f9957612f99613061565b500490565b600082821015612fb057612fb061304b565b500390565b60005b83811015612fd0578181015183820152602001612fb8565b838111156111ab5750506000910152565b600181811c90821680612ff557607f821691505b6020821081141561301657634e487b7160e01b600052602260045260246000fd5b50919050565b60006000198214156130305761303061304b565b5060010190565b60008261304657613046613061565b500690565b634e487b7160e01b600052601160045260246000fd5b634e487b7160e01b600052601260045260246000fd5b634e487b7160e01b600052603160045260246000fd5b634e487b7160e01b600052603260045260246000fd5b634e487b7160e01b600052604160045260246000fd5b6001600160a01b0381168114611b3857600080fd5b8015158114611b3857600080fd5b6001600160e01b031981168114611b3857600080fdfe60a060405234801561001057600080fd5b5033606081901b60805261049d6100376000396000818160550152609e015261049d6000f3fe608060405234801561001057600080fd5b50600436106100365760003560e01c8063a5f2a1521461003b578063d7b96d4e14610050575b600080fd5b61004e61004936600461038f565b610093565b005b6100777f000000000000000000000000000000000000000000000000000000000000000081565b6040516001600160a01b03909116815260200160405180910390f35b336001600160a01b037f000000000000000000000000000000000000000000000000000000000000000016146100c857600080fd5b6100dc6001600160a01b03841683836100e1565b505050565b604080516001600160a01b03848116602483015260448083018590528351808403909101815260649092018352602080830180516001600160e01b031663a9059cbb60e01b17905283518085019094528084527f5361666545524332303a206c6f772d6c6576656c2063616c6c206661696c6564908401526100dc928692916000916101719185169084906101f3565b8051909150156100dc578080602001905181019061018f919061036d565b6100dc5760405162461bcd60e51b815260206004820152602a60248201527f5361666545524332303a204552433230206f7065726174696f6e20646964206e6044820152691bdd081cdd58d8d9595960b21b60648201526084015b60405180910390fd5b6060610202848460008561020c565b90505b9392505050565b60608247101561026d5760405162461bcd60e51b815260206004820152602660248201527f416464726573733a20696e73756666696369656e742062616c616e636520666f6044820152651c8818d85b1b60d21b60648201526084016101ea565b843b6102bb5760405162461bcd60e51b815260206004820152601d60248201527f416464726573733a2063616c6c20746f206e6f6e2d636f6e747261637400000060448201526064016101ea565b600080866001600160a01b031685876040516102d791906103d0565b60006040518083038185875af1925050503d8060008114610314576040519150601f19603f3d011682016040523d82523d6000602084013e610319565b606091505b5091509150610329828286610334565b979650505050505050565b60608315610343575081610205565b8251156103535782518084602001fd5b8160405162461bcd60e51b81526004016101ea91906103ec565b60006020828403121561037f57600080fd5b8151801515811461020557600080fd5b6000806000606084860312156103a457600080fd5b83356103af8161044f565b925060208401356103bf8161044f565b929592945050506040919091013590565b600082516103e281846020870161041f565b9190910192915050565b602081526000825180602084015261040b81604085016020870161041f565b601f01601f19169190910160400192915050565b60005b8381101561043a578181015183820152602001610422565b83811115610449576000848401525b50505050565b6001600160a01b038116811461046457600080fd5b5056fea2646970667358221220f1df02778a4658d7810dc455242e4b79feb16424fa5b291924db2c894c222a9864736f6c63430008060033ddf252ad1be2c89b69c2b068fc378daa952ba7f163c4a11628f55a4df523b3efa2646970667358221220197ab4d429217b9fe0e857b82cb1091d3c7c0711f467313d92c3e07ed8aeb9ed64736f6c63430008060033",
  "devdoc": {
    "author": "Muse",
    "kind": "dev",
    "methods": {
      "approve(address,uint256)": {
        "details": "See {IERC721-approve}."
      },
      "balanceOf(address)": {
        "details": "See {IERC721-balanceOf}."
      },
      "changeLockStatusByGovernance(uint256,bool)": {
        "details": "This can be useful in case the owner makes a mistake during deployment and the actual withdraw can only be done by the consent of both parties.The frontend should clearly indicate when a lock is unlockable and when it is actually unlocked."
      },
      "createLock(address,uint256,uint256,bool)": {
        "params": {
          "amount": "The amount of tokens to transfer in",
          "token": "The token to transfer in",
          "unlockTimestamp": "The timestamp from which withdrawals become possible",
          "unlockableByGovernance": "Indicates whether the Locker operator should be able to unlock"
        }
      },
      "getApproved(uint256)": {
        "details": "See {IERC721-getApproved}."
      },
      "getLock(uint256)": {
        "details": "The lock data should be indexed using TheGraph or similar to ensure users can always easily find their lockIds.Reverts in case the lockId is out of range.",
        "returns": {
          "_0": "The lock related to the lockId."
        }
      },
      "isApprovedForAll(address,address)": {
        "details": "See {IERC721-isApprovedForAll}."
      },
      "lastLockId()": {
        "details": "A lastLockId of zero means there are no locks yet!",
        "returns": {
          "_0": "The id of the latest lock."
        }
      },
      "owner()": {
        "details": "Returns the address of the current owner."
      },
      "ownerOf(uint256)": {
        "details": "See {IERC721-ownerOf}."
      },
      "renounceOwnership()": {
        "details": "Leaves the contract without owner. It will not be possible to call `onlyOwner` functions anymore. Can only be called by the current owner. NOTE: Renouncing ownership will leave the contract without an owner, thereby removing any functionality that is only available to the owner."
      },
      "safeTransferFrom(address,address,uint256)": {
        "details": "See {IERC721-safeTransferFrom}."
      },
      "safeTransferFrom(address,address,uint256,bytes)": {
        "details": "See {IERC721-safeTransferFrom}."
      },
      "setApprovalForAll(address,bool)": {
        "details": "See {IERC721-setApprovalForAll}."
      },
      "supportsInterface(bytes4)": {
        "details": "See {IERC165-supportsInterface}."
      },
      "tokenByIndex(uint256)": {
        "details": "See {IERC721Enumerable-tokenByIndex}."
      },
      "tokenOfOwnerByIndex(address,uint256)": {
        "details": "See {IERC721Enumerable-tokenOfOwnerByIndex}."
      },
      "tokenURI(uint256)": {
        "details": "See {IERC721Metadata-tokenURI}."
      },
      "totalSupply()": {
        "details": "See {IERC721Enumerable-totalSupply}."
      },
      "transferFrom(address,address,uint256)": {
        "details": "See {IERC721-transferFrom}."
      },
      "transferOwnership(address)": {
        "details": "Transfers ownership of the contract to a new account (`newOwner`). Can only be called by the current owner."
      },
      "withdraw(uint256)": {
        "params": {
          "lockId": "The id of the locked position"
        }
      }
    },
    "title": "Violin's locker contract",
    "version": 1
  },
  "userdoc": {
    "kind": "user",
    "methods": {
      "changeLockStatusByGovernance(uint256,bool)": {
        "notice": "In case the lock owner allows it, governance can disable the timelock."
      },
      "createLock(address,uint256,uint256,bool)": {
        "notice": "Creates a new lock by transferring 'amount' to a newly created holding contract.An NFT with the lockId is minted to the user. This NFT is transferrable and represents the ownership of the lock."
      },
      "disableUnlockableByGovernance(uint256)": {
        "notice": "if the lock owner wants to reduce their privileges further in case they gave governance unlockability, they can call this function."
      },
      "getLock(uint256)": {
        "notice": "Returns information about a specific Lock."
      },
      "isValidLock(uint256)": {
        "notice": "returns whether the lockId exists (is created)"
      },
      "lastLockId()": {
        "notice": "Gets the incremental id of the most recent lock. The first lock is at id 1."
      },
      "name()": {
        "notice": "Override the token name to allow for rebranding."
      },
      "operator()": {
        "notice": "The operator can disable the unlockTimestamp (make a lock withdrawable) if the lock creator permits this."
      },
      "setTokenNameAndSymbol(string,string)": {
        "notice": "The token name and symbol are upgradeable in case of rebranding."
      },
      "symbol()": {
        "notice": "Override the token symbol to allow for rebranding."
      },
      "transferOperator(address)": {
        "notice": "Transfer the operator address to a new address, only callable by owner."
      },
      "withdraw(uint256)": {
        "notice": "Withdraws 'amount' amount of tokens from the locked position. Can only be called by the current owner of the lock NFT.Once the remaining amount reaches zero, the NFT is burned.The ownership share is therefore not fractional as it would complicate things for the user."
      }
    },
    "notice": "The locker contract allows project admins to lock LP tokens for a period",
    "version": 1
  },
  "storageLayout": {
    "storage": [
      {
        "astId": 1042,
        "contract": "contracts/Locker.sol:Locker",
        "label": "_name",
        "offset": 0,
        "slot": "0",
        "type": "t_string_storage"
      },
      {
        "astId": 1044,
        "contract": "contracts/Locker.sol:Locker",
        "label": "_symbol",
        "offset": 0,
        "slot": "1",
        "type": "t_string_storage"
      },
      {
        "astId": 1048,
        "contract": "contracts/Locker.sol:Locker",
        "label": "_owners",
        "offset": 0,
        "slot": "2",
        "type": "t_mapping(t_uint256,t_address)"
      },
      {
        "astId": 1052,
        "contract": "contracts/Locker.sol:Locker",
        "label": "_balances",
        "offset": 0,
        "slot": "3",
        "type": "t_mapping(t_address,t_uint256)"
      },
      {
        "astId": 1056,
        "contract": "contracts/Locker.sol:Locker",
        "label": "_tokenApprovals",
        "offset": 0,
        "slot": "4",
        "type": "t_mapping(t_uint256,t_address)"
      },
      {
        "astId": 1062,
        "contract": "contracts/Locker.sol:Locker",
        "label": "_operatorApprovals",
        "offset": 0,
        "slot": "5",
        "type": "t_mapping(t_address,t_mapping(t_address,t_bool))"
      },
      {
        "astId": 1981,
        "contract": "contracts/Locker.sol:Locker",
        "label": "_ownedTokens",
        "offset": 0,
        "slot": "6",
        "type": "t_mapping(t_address,t_mapping(t_uint256,t_uint256))"
      },
      {
        "astId": 1985,
        "contract": "contracts/Locker.sol:Locker",
        "label": "_ownedTokensIndex",
        "offset": 0,
        "slot": "7",
        "type": "t_mapping(t_uint256,t_uint256)"
      },
      {
        "astId": 1988,
        "contract": "contracts/Locker.sol:Locker",
        "label": "_allTokens",
        "offset": 0,
        "slot": "8",
        "type": "t_array(t_uint256)dyn_storage"
      },
      {
        "astId": 1992,
        "contract": "contracts/Locker.sol:Locker",
        "label": "_allTokensIndex",
        "offset": 0,
        "slot": "9",
        "type": "t_mapping(t_uint256,t_uint256)"
      },
      {
        "astId": 7,
        "contract": "contracts/Locker.sol:Locker",
        "label": "_owner",
        "offset": 0,
        "slot": "10",
        "type": "t_address"
      },
      {
        "astId": 114,
        "contract": "contracts/Locker.sol:Locker",
        "label": "_status",
        "offset": 0,
        "slot": "11",
        "type": "t_uint256"
      },
      {
        "astId": 3049,
        "contract": "contracts/Locker.sol:Locker",
        "label": "operator",
        "offset": 0,
        "slot": "12",
        "type": "t_address"
      },
      {
        "astId": 3053,
        "contract": "contracts/Locker.sol:Locker",
        "label": "lockIdCounter",
        "offset": 0,
        "slot": "13",
        "type": "t_struct(Counter)2687_storage"
      },
      {
        "astId": 3059,
        "contract": "contracts/Locker.sol:Locker",
        "label": "locks",
        "offset": 0,
        "slot": "14",
        "type": "t_mapping(t_uint256,t_struct(Lock)3046_storage)"
      },
      {
        "astId": 3063,
        "contract": "contracts/Locker.sol:Locker",
        "label": "tokenName",
        "offset": 0,
        "slot": "15",
        "type": "t_string_storage"
      },
      {
        "astId": 3067,
        "contract": "contracts/Locker.sol:Locker",
        "label": "tokenSymbol",
        "offset": 0,
        "slot": "16",
        "type": "t_string_storage"
      }
    ],
    "types": {
      "t_address": {
        "encoding": "inplace",
        "label": "address",
        "numberOfBytes": "20"
      },
      "t_array(t_uint256)dyn_storage": {
        "base": "t_uint256",
        "encoding": "dynamic_array",
        "label": "uint256[]",
        "numberOfBytes": "32"
      },
      "t_bool": {
        "encoding": "inplace",
        "label": "bool",
        "numberOfBytes": "1"
      },
      "t_contract(IERC20)767": {
        "encoding": "inplace",
        "label": "contract IERC20",
        "numberOfBytes": "20"
      },
      "t_mapping(t_address,t_bool)": {
        "encoding": "mapping",
        "key": "t_address",
        "label": "mapping(address => bool)",
        "numberOfBytes": "32",
        "value": "t_bool"
      },
      "t_mapping(t_address,t_mapping(t_address,t_bool))": {
        "encoding": "mapping",
        "key": "t_address",
        "label": "mapping(address => mapping(address => bool))",
        "numberOfBytes": "32",
        "value": "t_mapping(t_address,t_bool)"
      },
      "t_mapping(t_address,t_mapping(t_uint256,t_uint256))": {
        "encoding": "mapping",
        "key": "t_address",
        "label": "mapping(address => mapping(uint256 => uint256))",
        "numberOfBytes": "32",
        "value": "t_mapping(t_uint256,t_uint256)"
      },
      "t_mapping(t_address,t_uint256)": {
        "encoding": "mapping",
        "key": "t_address",
        "label": "mapping(address => uint256)",
        "numberOfBytes": "32",
        "value": "t_uint256"
      },
      "t_mapping(t_uint256,t_address)": {
        "encoding": "mapping",
        "key": "t_uint256",
        "label": "mapping(uint256 => address)",
        "numberOfBytes": "32",
        "value": "t_address"
      },
      "t_mapping(t_uint256,t_struct(Lock)3046_storage)": {
        "encoding": "mapping",
        "key": "t_uint256",
        "label": "mapping(uint256 => struct Locker.Lock)",
        "numberOfBytes": "32",
        "value": "t_struct(Lock)3046_storage"
      },
      "t_mapping(t_uint256,t_uint256)": {
        "encoding": "mapping",
        "key": "t_uint256",
        "label": "mapping(uint256 => uint256)",
        "numberOfBytes": "32",
        "value": "t_uint256"
      },
      "t_string_storage": {
        "encoding": "bytes",
        "label": "string",
        "numberOfBytes": "32"
      },
      "t_struct(Counter)2687_storage": {
        "encoding": "inplace",
        "label": "struct Counters.Counter",
        "members": [
          {
            "astId": 2686,
            "contract": "contracts/Locker.sol:Locker",
            "label": "_value",
            "offset": 0,
            "slot": "0",
            "type": "t_uint256"
          }
        ],
        "numberOfBytes": "32"
      },
      "t_struct(Lock)3046_storage": {
        "encoding": "inplace",
        "label": "struct Locker.Lock",
        "members": [
          {
            "astId": 3020,
            "contract": "contracts/Locker.sol:Locker",
            "label": "lockId",
            "offset": 0,
            "slot": "0",
            "type": "t_uint256"
          },
          {
            "astId": 3024,
            "contract": "contracts/Locker.sol:Locker",
            "label": "token",
            "offset": 0,
            "slot": "1",
            "type": "t_contract(IERC20)767"
          },
          {
            "astId": 3027,
            "contract": "contracts/Locker.sol:Locker",
            "label": "creator",
            "offset": 0,
            "slot": "2",
            "type": "t_address"
          },
          {
            "astId": 3030,
            "contract": "contracts/Locker.sol:Locker",
            "label": "amount",
            "offset": 0,
            "slot": "3",
            "type": "t_uint256"
          },
          {
            "astId": 3033,
            "contract": "contracts/Locker.sol:Locker",
            "label": "unclaimed",
            "offset": 0,
            "slot": "4",
            "type": "t_bool"
          },
          {
            "astId": 3036,
            "contract": "contracts/Locker.sol:Locker",
            "label": "unlockTimestamp",
            "offset": 0,
            "slot": "5",
            "type": "t_uint256"
          },
          {
            "astId": 3039,
            "contract": "contracts/Locker.sol:Locker",
            "label": "holdingContract",
            "offset": 0,
            "slot": "6",
            "type": "t_address"
          },
          {
            "astId": 3042,
            "contract": "contracts/Locker.sol:Locker",
            "label": "unlockableByGovernance",
            "offset": 20,
            "slot": "6",
            "type": "t_bool"
          },
          {
            "astId": 3045,
            "contract": "contracts/Locker.sol:Locker",
            "label": "unlockedByGovernance",
            "offset": 21,
            "slot": "6",
            "type": "t_bool"
          }
        ],
        "numberOfBytes": "224"
      },
      "t_uint256": {
        "encoding": "inplace",
        "label": "uint256",
        "numberOfBytes": "32"
      }
    }
  }
}